{
  "contractName": "NFT",
  "abi": [
    {
      "inputs": [],
      "stateMutability": "nonpayable",
      "type": "constructor"
    },
    {
      "anonymous": false,
      "inputs": [
        {
          "indexed": true,
          "internalType": "address",
          "name": "owner",
          "type": "address"
        },
        {
          "indexed": true,
          "internalType": "address",
          "name": "approved",
          "type": "address"
        },
        {
          "indexed": true,
          "internalType": "uint256",
          "name": "tokenId",
          "type": "uint256"
        }
      ],
      "name": "Approval",
      "type": "event"
    },
    {
      "anonymous": false,
      "inputs": [
        {
          "indexed": true,
          "internalType": "address",
          "name": "owner",
          "type": "address"
        },
        {
          "indexed": true,
          "internalType": "address",
          "name": "operator",
          "type": "address"
        },
        {
          "indexed": false,
          "internalType": "bool",
          "name": "approved",
          "type": "bool"
        }
      ],
      "name": "ApprovalForAll",
      "type": "event"
    },
    {
      "anonymous": false,
      "inputs": [
        {
          "indexed": true,
          "internalType": "address",
          "name": "from",
          "type": "address"
        },
        {
          "indexed": true,
          "internalType": "address",
          "name": "to",
          "type": "address"
        },
        {
          "indexed": true,
          "internalType": "uint256",
          "name": "tokenId",
          "type": "uint256"
        }
      ],
      "name": "Transfer",
      "type": "event"
    },
    {
      "inputs": [],
      "name": "admin",
      "outputs": [
        {
          "internalType": "address",
          "name": "",
          "type": "address"
        }
      ],
      "stateMutability": "view",
      "type": "function"
    },
    {
      "inputs": [
        {
          "internalType": "address",
          "name": "to",
          "type": "address"
        },
        {
          "internalType": "uint256",
          "name": "tokenId",
          "type": "uint256"
        }
      ],
      "name": "approve",
      "outputs": [],
      "stateMutability": "nonpayable",
      "type": "function"
    },
    {
      "inputs": [
        {
          "internalType": "address",
          "name": "owner",
          "type": "address"
        }
      ],
      "name": "balanceOf",
      "outputs": [
        {
          "internalType": "uint256",
          "name": "",
          "type": "uint256"
        }
      ],
      "stateMutability": "view",
      "type": "function"
    },
    {
      "inputs": [
        {
          "internalType": "uint256",
          "name": "tokenId",
          "type": "uint256"
        }
      ],
      "name": "getApproved",
      "outputs": [
        {
          "internalType": "address",
          "name": "",
          "type": "address"
        }
      ],
      "stateMutability": "view",
      "type": "function"
    },
    {
      "inputs": [
        {
          "internalType": "address",
          "name": "owner",
          "type": "address"
        },
        {
          "internalType": "address",
          "name": "operator",
          "type": "address"
        }
      ],
      "name": "isApprovedForAll",
      "outputs": [
        {
          "internalType": "bool",
          "name": "",
          "type": "bool"
        }
      ],
      "stateMutability": "view",
      "type": "function"
    },
    {
      "inputs": [],
      "name": "name",
      "outputs": [
        {
          "internalType": "string",
          "name": "",
          "type": "string"
        }
      ],
      "stateMutability": "view",
      "type": "function"
    },
    {
      "inputs": [],
      "name": "nextTokenId",
      "outputs": [
        {
          "internalType": "uint256",
          "name": "",
          "type": "uint256"
        }
      ],
      "stateMutability": "view",
      "type": "function"
    },
    {
      "inputs": [
        {
          "internalType": "uint256",
          "name": "tokenId",
          "type": "uint256"
        }
      ],
      "name": "ownerOf",
      "outputs": [
        {
          "internalType": "address",
          "name": "",
          "type": "address"
        }
      ],
      "stateMutability": "view",
      "type": "function"
    },
    {
      "inputs": [
        {
          "internalType": "address",
          "name": "from",
          "type": "address"
        },
        {
          "internalType": "address",
          "name": "to",
          "type": "address"
        },
        {
          "internalType": "uint256",
          "name": "tokenId",
          "type": "uint256"
        }
      ],
      "name": "safeTransferFrom",
      "outputs": [],
      "stateMutability": "nonpayable",
      "type": "function"
    },
    {
      "inputs": [
        {
          "internalType": "address",
          "name": "from",
          "type": "address"
        },
        {
          "internalType": "address",
          "name": "to",
          "type": "address"
        },
        {
          "internalType": "uint256",
          "name": "tokenId",
          "type": "uint256"
        },
        {
          "internalType": "bytes",
          "name": "_data",
          "type": "bytes"
        }
      ],
      "name": "safeTransferFrom",
      "outputs": [],
      "stateMutability": "nonpayable",
      "type": "function"
    },
    {
      "inputs": [
        {
          "internalType": "address",
          "name": "operator",
          "type": "address"
        },
        {
          "internalType": "bool",
          "name": "approved",
          "type": "bool"
        }
      ],
      "name": "setApprovalForAll",
      "outputs": [],
      "stateMutability": "nonpayable",
      "type": "function"
    },
    {
      "inputs": [
        {
          "internalType": "bytes4",
          "name": "interfaceId",
          "type": "bytes4"
        }
      ],
      "name": "supportsInterface",
      "outputs": [
        {
          "internalType": "bool",
          "name": "",
          "type": "bool"
        }
      ],
      "stateMutability": "view",
      "type": "function"
    },
    {
      "inputs": [],
      "name": "symbol",
      "outputs": [
        {
          "internalType": "string",
          "name": "",
          "type": "string"
        }
      ],
      "stateMutability": "view",
      "type": "function"
    },
    {
      "inputs": [
        {
          "internalType": "uint256",
          "name": "tokenId",
          "type": "uint256"
        }
      ],
      "name": "tokenURI",
      "outputs": [
        {
          "internalType": "string",
          "name": "",
          "type": "string"
        }
      ],
      "stateMutability": "view",
      "type": "function"
    },
    {
      "inputs": [
        {
          "internalType": "address",
          "name": "from",
          "type": "address"
        },
        {
          "internalType": "address",
          "name": "to",
          "type": "address"
        },
        {
          "internalType": "uint256",
          "name": "tokenId",
          "type": "uint256"
        }
      ],
      "name": "transferFrom",
      "outputs": [],
      "stateMutability": "nonpayable",
      "type": "function"
    },
    {
      "inputs": [
        {
          "internalType": "address",
          "name": "to",
          "type": "address"
        }
      ],
      "name": "mint",
      "outputs": [],
      "stateMutability": "payable",
      "type": "function"
    }
  ],
  "bytecode": "0x60806040523480156200001157600080fd5b506040518060400160405280600681526020017f4d79204e465400000000000000000000000000000000000000000000000000008152506040518060400160405280600381526020017f4e46540000000000000000000000000000000000000000000000000000000000815250816000908051906020019062000096929190620000f9565b508060019080519060200190620000af929190620000f9565b50505033600760006101000a81548173ffffffffffffffffffffffffffffffffffffffff021916908373ffffffffffffffffffffffffffffffffffffffff1602179055506200020e565b8280546200010790620001a9565b90600052602060002090601f0160209004810192826200012b576000855562000177565b82601f106200014657805160ff191683800117855562000177565b8280016001018555821562000177579182015b828111156200017657825182559160200191906001019062000159565b5b5090506200018691906200018a565b5090565b5b80821115620001a55760008160009055506001016200018b565b5090565b60006002820490506001821680620001c257607f821691505b60208210811415620001d957620001d8620001df565b5b50919050565b7f4e487b7100000000000000000000000000000000000000000000000000000000600052602260045260246000fd5b612945806200021e6000396000f3fe6080604052600436106100f35760003560e01c806370a082311161008a578063b88d4fde11610059578063b88d4fde1461032d578063c87b56dd14610356578063e985e9c514610393578063f851a440146103d0576100f3565b806370a082311461027157806375794a3c146102ae57806395d89b41146102d9578063a22cb46514610304576100f3565b806323b872dd116100c657806323b872dd146101c657806342842e0e146101ef5780636352211e146102185780636a62784214610255576100f3565b806301ffc9a7146100f857806306fdde0314610135578063081812fc14610160578063095ea7b31461019d575b600080fd5b34801561010457600080fd5b5061011f600480360381019061011a9190611b2f565b6103fb565b60405161012c91906122cd565b60405180910390f35b34801561014157600080fd5b5061014a6104dd565b60405161015791906122e8565b60405180910390f35b34801561016c57600080fd5b5061018760048036038101906101829190611b81565b61056f565b6040516101949190612266565b60405180910390f35b3480156101a957600080fd5b506101c460048036038101906101bf9190611af3565b6105f4565b005b3480156101d257600080fd5b506101ed60048036038101906101e891906119ed565b61070c565b005b3480156101fb57600080fd5b50610216600480360381019061021191906119ed565b61076c565b005b34801561022457600080fd5b5061023f600480360381019061023a9190611b81565b61078c565b60405161024c9190612266565b60405180910390f35b61026f600480360381019061026a9190611988565b61083e565b005b34801561027d57600080fd5b5061029860048036038101906102939190611988565b61093c565b6040516102a5919061250a565b60405180910390f35b3480156102ba57600080fd5b506102c36109f4565b6040516102d0919061250a565b60405180910390f35b3480156102e557600080fd5b506102ee6109fa565b6040516102fb91906122e8565b60405180910390f35b34801561031057600080fd5b5061032b60048036038101906103269190611ab7565b610a8c565b005b34801561033957600080fd5b50610354600480360381019061034f9190611a3c565b610c0d565b005b34801561036257600080fd5b5061037d60048036038101906103789190611b81565b610c6f565b60405161038a91906122e8565b60405180910390f35b34801561039f57600080fd5b506103ba60048036038101906103b591906119b1565b610d16565b6040516103c791906122cd565b60405180910390f35b3480156103dc57600080fd5b506103e5610daa565b6040516103f29190612266565b60405180910390f35b60007f80ac58cd000000000000000000000000000000000000000000000000000000007bffffffffffffffffffffffffffffffffffffffffffffffffffffffff1916827bffffffffffffffffffffffffffffffffffffffffffffffffffffffff191614806104c657507f5b5e139f000000000000000000000000000000000000000000000000000000007bffffffffffffffffffffffffffffffffffffffffffffffffffffffff1916827bffffffffffffffffffffffffffffffffffffffffffffffffffffffff1916145b806104d657506104d582610dd0565b5b9050919050565b6060600080546104ec9061273a565b80601f01602080910402602001604051908101604052809291908181526020018280546105189061273a565b80156105655780601f1061053a57610100808354040283529160200191610565565b820191906000526020600020905b81548152906001019060200180831161054857829003601f168201915b5050505050905090565b600061057a82610e3a565b6105b9576040517f08c379a00000000000000000000000000000000000000000000000000000000081526004016105b09061246a565b60405180910390fd5b6004600083815260200190815260200160002060009054906101000a900473ffffffffffffffffffffffffffffffffffffffff169050919050565b60006105ff8261078c565b90508073ffffffffffffffffffffffffffffffffffffffff168373ffffffffffffffffffffffffffffffffffffffff161415610670576040517f08c379a0000000000000000000000000000000000000000000000000000000008152600401610667906124ca565b60405180910390fd5b8073ffffffffffffffffffffffffffffffffffffffff1661068f610ea6565b73ffffffffffffffffffffffffffffffffffffffff1614806106be57506106bd816106b8610ea6565b610d16565b5b6106fd576040517f08c379a00000000000000000000000000000000000000000000000000000000081526004016106f4906123ca565b60405180910390fd5b6107078383610eae565b505050565b61071d610717610ea6565b82610f67565b61075c576040517f08c379a0000000000000000000000000000000000000000000000000000000008152600401610753906124ea565b60405180910390fd5b610767838383611045565b505050565b61078783838360405180602001604052806000815250610c0d565b505050565b6000806002600084815260200190815260200160002060009054906101000a900473ffffffffffffffffffffffffffffffffffffffff169050600073ffffffffffffffffffffffffffffffffffffffff168173ffffffffffffffffffffffffffffffffffffffff161415610835576040517f08c379a000000000000000000000000000000000000000000000000000000000815260040161082c9061240a565b60405180910390fd5b80915050919050565b600760009054906101000a900473ffffffffffffffffffffffffffffffffffffffff1673ffffffffffffffffffffffffffffffffffffffff163373ffffffffffffffffffffffffffffffffffffffff16146108ce576040517f08c379a00000000000000000000000000000000000000000000000000000000081526004016108c59061238a565b60405180910390fd5b6402540be4003414610915576040517f08c379a000000000000000000000000000000000000000000000000000000000815260040161090c9061242a565b60405180910390fd5b610921816006546112a1565b600660008154809291906109349061276c565b919050555050565b60008073ffffffffffffffffffffffffffffffffffffffff168273ffffffffffffffffffffffffffffffffffffffff1614156109ad576040517f08c379a00000000000000000000000000000000000000000000000000000000081526004016109a4906123ea565b60405180910390fd5b600360008373ffffffffffffffffffffffffffffffffffffffff1673ffffffffffffffffffffffffffffffffffffffff168152602001908152602001600020549050919050565b60065481565b606060018054610a099061273a565b80601f0160208091040260200160405190810160405280929190818152602001828054610a359061273a565b8015610a825780601f10610a5757610100808354040283529160200191610a82565b820191906000526020600020905b815481529060010190602001808311610a6557829003601f168201915b5050505050905090565b610a94610ea6565b73ffffffffffffffffffffffffffffffffffffffff168273ffffffffffffffffffffffffffffffffffffffff161415610b02576040517f08c379a0000000000000000000000000000000000000000000000000000000008152600401610af99061236a565b60405180910390fd5b8060056000610b0f610ea6565b73ffffffffffffffffffffffffffffffffffffffff1673ffffffffffffffffffffffffffffffffffffffff16815260200190815260200160002060008473ffffffffffffffffffffffffffffffffffffffff1673ffffffffffffffffffffffffffffffffffffffff16815260200190815260200160002060006101000a81548160ff0219169083151502179055508173ffffffffffffffffffffffffffffffffffffffff16610bbc610ea6565b73ffffffffffffffffffffffffffffffffffffffff167f17307eab39ab6107e8899845ad3d59bd9653f200f220920489ca2b5937696c3183604051610c0191906122cd565b60405180910390a35050565b610c1e610c18610ea6565b83610f67565b610c5d576040517f08c379a0000000000000000000000000000000000000000000000000000000008152600401610c54906124ea565b60405180910390fd5b610c69848484846112bf565b50505050565b6060610c7a82610e3a565b610cb9576040517f08c379a0000000000000000000000000000000000000000000000000000000008152600401610cb0906124aa565b60405180910390fd5b6000610cc361131b565b90506000815111610ce35760405180602001604052806000815250610d0e565b80610ced84611332565b604051602001610cfe929190612242565b6040516020818303038152906040525b915050919050565b6000600560008473ffffffffffffffffffffffffffffffffffffffff1673ffffffffffffffffffffffffffffffffffffffff16815260200190815260200160002060008373ffffffffffffffffffffffffffffffffffffffff1673ffffffffffffffffffffffffffffffffffffffff16815260200190815260200160002060009054906101000a900460ff16905092915050565b600760009054906101000a900473ffffffffffffffffffffffffffffffffffffffff1681565b60007f01ffc9a7000000000000000000000000000000000000000000000000000000007bffffffffffffffffffffffffffffffffffffffffffffffffffffffff1916827bffffffffffffffffffffffffffffffffffffffffffffffffffffffff1916149050919050565b60008073ffffffffffffffffffffffffffffffffffffffff166002600084815260200190815260200160002060009054906101000a900473ffffffffffffffffffffffffffffffffffffffff1673ffffffffffffffffffffffffffffffffffffffff1614159050919050565b600033905090565b816004600083815260200190815260200160002060006101000a81548173ffffffffffffffffffffffffffffffffffffffff021916908373ffffffffffffffffffffffffffffffffffffffff160217905550808273ffffffffffffffffffffffffffffffffffffffff16610f218361078c565b73ffffffffffffffffffffffffffffffffffffffff167f8c5be1e5ebec7d5bd14f71427d1e84f3dd0314c0f7b2291e5b200ac8c7c3b92560405160405180910390a45050565b6000610f7282610e3a565b610fb1576040517f08c379a0000000000000000000000000000000000000000000000000000000008152600401610fa8906123aa565b60405180910390fd5b6000610fbc8361078c565b90508073ffffffffffffffffffffffffffffffffffffffff168473ffffffffffffffffffffffffffffffffffffffff16148061102b57508373ffffffffffffffffffffffffffffffffffffffff166110138461056f565b73ffffffffffffffffffffffffffffffffffffffff16145b8061103c575061103b8185610d16565b5b91505092915050565b8273ffffffffffffffffffffffffffffffffffffffff166110658261078c565b73ffffffffffffffffffffffffffffffffffffffff16146110bb576040517f08c379a00000000000000000000000000000000000000000000000000000000081526004016110b29061248a565b60405180910390fd5b600073ffffffffffffffffffffffffffffffffffffffff168273ffffffffffffffffffffffffffffffffffffffff16141561112b576040517f08c379a00000000000000000000000000000000000000000000000000000000081526004016111229061234a565b60405180910390fd5b6111368383836114df565b611141600082610eae565b6001600360008573ffffffffffffffffffffffffffffffffffffffff1673ffffffffffffffffffffffffffffffffffffffff16815260200190815260200160002060008282546111919190612650565b925050819055506001600360008473ffffffffffffffffffffffffffffffffffffffff1673ffffffffffffffffffffffffffffffffffffffff16815260200190815260200160002060008282546111e891906125c9565b92505081905550816002600083815260200190815260200160002060006101000a81548173ffffffffffffffffffffffffffffffffffffffff021916908373ffffffffffffffffffffffffffffffffffffffff160217905550808273ffffffffffffffffffffffffffffffffffffffff168473ffffffffffffffffffffffffffffffffffffffff167fddf252ad1be2c89b69c2b068fc378daa952ba7f163c4a11628f55a4df523b3ef60405160405180910390a4505050565b6112bb8282604051806020016040528060008152506114e4565b5050565b6112ca848484611045565b6112d68484848461153f565b611315576040517f08c379a000000000000000000000000000000000000000000000000000000000815260040161130c9061230a565b60405180910390fd5b50505050565b606060405180602001604052806000815250905090565b6060600082141561137a576040518060400160405280600181526020017f300000000000000000000000000000000000000000000000000000000000000081525090506114da565b600082905060005b600082146113ac5780806113959061276c565b915050600a826113a5919061261f565b9150611382565b60008167ffffffffffffffff8111156113ee577f4e487b7100000000000000000000000000000000000000000000000000000000600052604160045260246000fd5b6040519080825280601f01601f1916602001820160405280156114205781602001600182028036833780820191505090505b5090505b600085146114d3576001826114399190612650565b9150600a8561144891906127b5565b603061145491906125c9565b60f81b818381518110611490577f4e487b7100000000000000000000000000000000000000000000000000000000600052603260045260246000fd5b60200101907effffffffffffffffffffffffffffffffffffffffffffffffffffffffffffff1916908160001a905350600a856114cc919061261f565b9450611424565b8093505050505b919050565b505050565b6114ee83836116d6565b6114fb600084848461153f565b61153a576040517f08c379a00000000000000000000000000000000000000000000000000000000081526004016115319061230a565b60405180910390fd5b505050565b60006115608473ffffffffffffffffffffffffffffffffffffffff166118a4565b156116c9578373ffffffffffffffffffffffffffffffffffffffff1663150b7a02611589610ea6565b8786866040518563ffffffff1660e01b81526004016115ab9493929190612281565b602060405180830381600087803b1580156115c557600080fd5b505af19250505080156115f657506040513d601f19601f820116820180604052508101906115f39190611b58565b60015b611679573d8060008114611626576040519150601f19603f3d011682016040523d82523d6000602084013e61162b565b606091505b50600081511415611671576040517f08c379a00000000000000000000000000000000000000000000000000000000081526004016116689061230a565b60405180910390fd5b805181602001fd5b63150b7a0260e01b7bffffffffffffffffffffffffffffffffffffffffffffffffffffffff1916817bffffffffffffffffffffffffffffffffffffffffffffffffffffffff1916149150506116ce565b600190505b949350505050565b600073ffffffffffffffffffffffffffffffffffffffff168273ffffffffffffffffffffffffffffffffffffffff161415611746576040517f08c379a000000000000000000000000000000000000000000000000000000000815260040161173d9061244a565b60405180910390fd5b61174f81610e3a565b1561178f576040517f08c379a00000000000000000000000000000000000000000000000000000000081526004016117869061232a565b60405180910390fd5b61179b600083836114df565b6001600360008473ffffffffffffffffffffffffffffffffffffffff1673ffffffffffffffffffffffffffffffffffffffff16815260200190815260200160002060008282546117eb91906125c9565b92505081905550816002600083815260200190815260200160002060006101000a81548173ffffffffffffffffffffffffffffffffffffffff021916908373ffffffffffffffffffffffffffffffffffffffff160217905550808273ffffffffffffffffffffffffffffffffffffffff16600073ffffffffffffffffffffffffffffffffffffffff167fddf252ad1be2c89b69c2b068fc378daa952ba7f163c4a11628f55a4df523b3ef60405160405180910390a45050565b600080823b905060008111915050919050565b60006118ca6118c584612556565b612525565b9050828152602081018484840111156118e257600080fd5b6118ed8482856126f8565b509392505050565b600081359050611904816128b3565b92915050565b600081359050611919816128ca565b92915050565b60008135905061192e816128e1565b92915050565b600081519050611943816128e1565b92915050565b600082601f83011261195a57600080fd5b813561196a8482602086016118b7565b91505092915050565b600081359050611982816128f8565b92915050565b60006020828403121561199a57600080fd5b60006119a8848285016118f5565b91505092915050565b600080604083850312156119c457600080fd5b60006119d2858286016118f5565b92505060206119e3858286016118f5565b9150509250929050565b600080600060608486031215611a0257600080fd5b6000611a10868287016118f5565b9350506020611a21868287016118f5565b9250506040611a3286828701611973565b9150509250925092565b60008060008060808587031215611a5257600080fd5b6000611a60878288016118f5565b9450506020611a71878288016118f5565b9350506040611a8287828801611973565b925050606085013567ffffffffffffffff811115611a9f57600080fd5b611aab87828801611949565b91505092959194509250565b60008060408385031215611aca57600080fd5b6000611ad8858286016118f5565b9250506020611ae98582860161190a565b9150509250929050565b60008060408385031215611b0657600080fd5b6000611b14858286016118f5565b9250506020611b2585828601611973565b9150509250929050565b600060208284031215611b4157600080fd5b6000611b4f8482850161191f565b91505092915050565b600060208284031215611b6a57600080fd5b6000611b7884828501611934565b91505092915050565b600060208284031215611b9357600080fd5b6000611ba184828501611973565b91505092915050565b611bb381612684565b82525050565b611bc281612696565b82525050565b6000611bd382612586565b611bdd818561259c565b9350611bed818560208601612707565b611bf6816128a2565b840191505092915050565b6000611c0c82612591565b611c1681856125ad565b9350611c26818560208601612707565b611c2f816128a2565b840191505092915050565b6000611c4582612591565b611c4f81856125be565b9350611c5f818560208601612707565b80840191505092915050565b6000611c786032836125ad565b91507f4552433732313a207472616e7366657220746f206e6f6e20455243373231526560008301527f63656976657220696d706c656d656e74657200000000000000000000000000006020830152604082019050919050565b6000611cde601c836125ad565b91507f4552433732313a20746f6b656e20616c7265616479206d696e746564000000006000830152602082019050919050565b6000611d1e6024836125ad565b91507f4552433732313a207472616e7366657220746f20746865207a65726f2061646460008301527f72657373000000000000000000000000000000000000000000000000000000006020830152604082019050919050565b6000611d846019836125ad565b91507f4552433732313a20617070726f766520746f2063616c6c6572000000000000006000830152602082019050919050565b6000611dc4600a836125ad565b91507f6f6e6c792061646d696e000000000000000000000000000000000000000000006000830152602082019050919050565b6000611e04602c836125ad565b91507f4552433732313a206f70657261746f7220717565727920666f72206e6f6e657860008301527f697374656e7420746f6b656e00000000000000000000000000000000000000006020830152604082019050919050565b6000611e6a6038836125ad565b91507f4552433732313a20617070726f76652063616c6c6572206973206e6f74206f7760008301527f6e6572206e6f7220617070726f76656420666f7220616c6c00000000000000006020830152604082019050919050565b6000611ed0602a836125ad565b91507f4552433732313a2062616c616e636520717565727920666f7220746865207a6560008301527f726f2061646472657373000000000000000000000000000000000000000000006020830152604082019050919050565b6000611f366029836125ad565b91507f4552433732313a206f776e657220717565727920666f72206e6f6e657869737460008301527f656e7420746f6b656e00000000000000000000000000000000000000000000006020830152604082019050919050565b6000611f9c6028836125ad565b91507f76616c7565206d75737420626520455155414c20544f20302e3030303030303060008301527f30312045746865720000000000000000000000000000000000000000000000006020830152604082019050919050565b60006120026020836125ad565b91507f4552433732313a206d696e7420746f20746865207a65726f20616464726573736000830152602082019050919050565b6000612042602c836125ad565b91507f4552433732313a20617070726f76656420717565727920666f72206e6f6e657860008301527f697374656e7420746f6b656e00000000000000000000000000000000000000006020830152604082019050919050565b60006120a86029836125ad565b91507f4552433732313a207472616e73666572206f6620746f6b656e2074686174206960008301527f73206e6f74206f776e00000000000000000000000000000000000000000000006020830152604082019050919050565b600061210e602f836125ad565b91507f4552433732314d657461646174613a2055524920717565727920666f72206e6f60008301527f6e6578697374656e7420746f6b656e00000000000000000000000000000000006020830152604082019050919050565b60006121746021836125ad565b91507f4552433732313a20617070726f76616c20746f2063757272656e74206f776e6560008301527f72000000000000000000000000000000000000000000000000000000000000006020830152604082019050919050565b60006121da6031836125ad565b91507f4552433732313a207472616e736665722063616c6c6572206973206e6f74206f60008301527f776e6572206e6f7220617070726f7665640000000000000000000000000000006020830152604082019050919050565b61223c816126ee565b82525050565b600061224e8285611c3a565b915061225a8284611c3a565b91508190509392505050565b600060208201905061227b6000830184611baa565b92915050565b60006080820190506122966000830187611baa565b6122a36020830186611baa565b6122b06040830185612233565b81810360608301526122c28184611bc8565b905095945050505050565b60006020820190506122e26000830184611bb9565b92915050565b600060208201905081810360008301526123028184611c01565b905092915050565b6000602082019050818103600083015261232381611c6b565b9050919050565b6000602082019050818103600083015261234381611cd1565b9050919050565b6000602082019050818103600083015261236381611d11565b9050919050565b6000602082019050818103600083015261238381611d77565b9050919050565b600060208201905081810360008301526123a381611db7565b9050919050565b600060208201905081810360008301526123c381611df7565b9050919050565b600060208201905081810360008301526123e381611e5d565b9050919050565b6000602082019050818103600083015261240381611ec3565b9050919050565b6000602082019050818103600083015261242381611f29565b9050919050565b6000602082019050818103600083015261244381611f8f565b9050919050565b6000602082019050818103600083015261246381611ff5565b9050919050565b6000602082019050818103600083015261248381612035565b9050919050565b600060208201905081810360008301526124a38161209b565b9050919050565b600060208201905081810360008301526124c381612101565b9050919050565b600060208201905081810360008301526124e381612167565b9050919050565b60006020820190508181036000830152612503816121cd565b9050919050565b600060208201905061251f6000830184612233565b92915050565b6000604051905081810181811067ffffffffffffffff8211171561254c5761254b612873565b5b8060405250919050565b600067ffffffffffffffff82111561257157612570612873565b5b601f19601f8301169050602081019050919050565b600081519050919050565b600081519050919050565b600082825260208201905092915050565b600082825260208201905092915050565b600081905092915050565b60006125d4826126ee565b91506125df836126ee565b9250827fffffffffffffffffffffffffffffffffffffffffffffffffffffffffffffffff03821115612614576126136127e6565b5b828201905092915050565b600061262a826126ee565b9150612635836126ee565b92508261264557612644612815565b5b828204905092915050565b600061265b826126ee565b9150612666836126ee565b925082821015612679576126786127e6565b5b828203905092915050565b600061268f826126ce565b9050919050565b60008115159050919050565b60007fffffffff0000000000000000000000000000000000000000000000000000000082169050919050565b600073ffffffffffffffffffffffffffffffffffffffff82169050919050565b6000819050919050565b82818337600083830152505050565b60005b8381101561272557808201518184015260208101905061270a565b83811115612734576000848401525b50505050565b6000600282049050600182168061275257607f821691505b6020821081141561276657612765612844565b5b50919050565b6000612777826126ee565b91507fffffffffffffffffffffffffffffffffffffffffffffffffffffffffffffffff8214156127aa576127a96127e6565b5b600182019050919050565b60006127c0826126ee565b91506127cb836126ee565b9250826127db576127da612815565b5b828206905092915050565b7f4e487b7100000000000000000000000000000000000000000000000000000000600052601160045260246000fd5b7f4e487b7100000000000000000000000000000000000000000000000000000000600052601260045260246000fd5b7f4e487b7100000000000000000000000000000000000000000000000000000000600052602260045260246000fd5b7f4e487b7100000000000000000000000000000000000000000000000000000000600052604160045260246000fd5b6000601f19601f8301169050919050565b6128bc81612684565b81146128c757600080fd5b50565b6128d381612696565b81146128de57600080fd5b50565b6128ea816126a2565b81146128f557600080fd5b50565b612901816126ee565b811461290c57600080fd5b5056fea26469706673582212201965c7090fcf7e17fbf63a2e8a31874427a64fbfa369020fb7ee31721bd9734864736f6c63430008000033",
  "immutableReferences": {},
  "source": "// SPDX-License-Identifier: MIT\npragma solidity ^0.8.0;\n\nimport \"../node_modules/@openzeppelin/contracts/token/ERC721/ERC721.sol\";\n\ncontract NFT is ERC721 {\n    uint256 public nextTokenId;\n    address public admin;\n\n    constructor() ERC721(\"My NFT\", \"NFT\") {\n        admin = msg.sender;\n    }\n\n    function mint(address to) external payable {\n        require(msg.sender == admin, \"only admin\");\n        require(\n            msg.value == 10000000000 wei,\n            \"value must be EQUAL TO 0.000000001 Ether\"\n        );\n        _safeMint(to, nextTokenId);\n        nextTokenId++;\n    }\n\n    function _baseURI() internal view override returns (string memory) {\n        return \"\";\n    }\n}\n",
  "sourcePath": "/Volumes/APPLE HDD/reactprojects/nft/next-nft/contracts/NFT.sol",
  "compiler": {
    "name": "solc",
    "version": "0.8.0+commit.c7dfd78e.Emscripten.clang"
  },
  "schemaVersion": "3.4.3",
  "updatedAt": "2021-08-28T00:17:07.153Z",
  "devdoc": {
    "kind": "dev",
    "methods": {
      "approve(address,uint256)": {
        "details": "See {IERC721-approve}."
      },
      "balanceOf(address)": {
        "details": "See {IERC721-balanceOf}."
      },
      "getApproved(uint256)": {
        "details": "See {IERC721-getApproved}."
      },
      "isApprovedForAll(address,address)": {
        "details": "See {IERC721-isApprovedForAll}."
      },
      "name()": {
        "details": "See {IERC721Metadata-name}."
      },
      "ownerOf(uint256)": {
        "details": "See {IERC721-ownerOf}."
      },
      "safeTransferFrom(address,address,uint256)": {
        "details": "See {IERC721-safeTransferFrom}."
      },
      "safeTransferFrom(address,address,uint256,bytes)": {
        "details": "See {IERC721-safeTransferFrom}."
      },
      "setApprovalForAll(address,bool)": {
        "details": "See {IERC721-setApprovalForAll}."
      },
      "supportsInterface(bytes4)": {
        "details": "See {IERC165-supportsInterface}."
      },
      "symbol()": {
        "details": "See {IERC721Metadata-symbol}."
      },
      "tokenURI(uint256)": {
        "details": "See {IERC721Metadata-tokenURI}."
      },
      "transferFrom(address,address,uint256)": {
        "details": "See {IERC721-transferFrom}."
      }
    },
    "version": 1
  },
  "userdoc": {
    "kind": "user",
    "methods": {},
    "version": 1
  }
}